:020000000F28C7
:10000800CF00030883129000040891000A089200A8
:100018004E0893006328493084000030CE006130D8
:10002800CF0020208000840A04084B3A03192428B2
:10003800CF0A0319CE0A15284E088A004F088200F5
:100048004B3084004D302920312864008001840A17
:1000580004060319003404062A28DE208312CD186A
:10006800362837285F284B08010203183C283D280A
:1000780041284D18402841284B2801084B020318F5
:100088004628472855284D184A284B285528FF3018
:1000980085004C088C0003100C0CF9208312860094
:1000A8005F2803100030031801308500031000306A
:1000B80003180130860032280F28803410344B088A
:1000C800FF3A031D6828692880280130CD060310EF
:1000D800003003180130CB0001308F000F08CC0727
:1000E8004C080A3A031D79287A287F280310003023
:1000F80003180130CC00842801308F000F08CB078B
:100108004B081F39103A031D8A288B28A92806187E
:100118008E288F28A9288B1C92289328A92802307A
:10012800CD060310003003180130CB000310003057
:1001380003180130CC004D1480308F000F08C9001F
:1001480010308F000F08CA008B10CD1CAC28AD28CA
:10015800D2284B083F39203A031DB328B428D228A7
:100168004908043A0319B928BA28BD280310C90C4C
:10017800CE2880308F000F08C9004A08013A0319B9
:10018800C628C728CA280310CA0CCE2810308F00EA
:100198000F08CA00490886004A0985000B11130890
:1001A800CE0012088A001108840010088300CF0EC0
:1001B8004F0E090003108316003003180130850024
:1001C8008312FF30850001308316860003108312E6
:1001D8000030031801308600023083168100A030F9
:1001E80083128B00CD144D1408008D00FC28FC28C8
:1001F8008316881800290129FB2883120D08831308
:1002080089007F308E00831683120E0883168805B6
:0A02180008148312080810290800DA
:02400E00F23F7F
:104200007A009E00EC003A00000000000000000070
:00000001FF
